:020000040800F2
:1000000078080020A5010008DB2800083D2500082D
:10001000D9280008850800088D2C00080000000081
:10002000000000000000000000000000DF280008C1
:10003000450B000800000000DD280008E12800084A
:10004000BF010008BF010008BF010008BF01000890
:10005000BF010008BF010008BF010008BF01000880
:10006000BF010008BF010008BF010008BF01000870
:10007000BF010008BF010008BF010008BF01000860
:10008000BF010008BF010008BF010008BF01000850
:10009000BF010008BF010008BF010008BF01000840
:1000A000BF010008BF010008BF010008BF01000830
:1000B000BF010008BF010008BF010008BF01000820
:1000C000BF010008BF010008BF010008BF01000810
:1000D000BF010008812C0008BF010008BF01000813
:1000E000BF010008BF010008BF01000800F002F8CE
:1000F00000F048F80AA090E8000C82448344AAF17A
:100100000107DA4501D100F03DF8AFF2090EBAE877
:100110000F0013F0010F18BFFB1A43F0010318473B
:1001200094480000B4480000103A24BF78C878C151
:10013000FAD8520724BF30C830C144BF04680C60ED
:10014000704700000023002400250026103A28BF35
:1001500078C1FBD8520728BF30C148BF0B60704739
:10016000642900F08780002070471FB500F0BCFABA
:1001700004000020002103F075FD401C60601FBDDD
:1001800010B510BD00F08BFA1146FFF7EEFF02F03C
:100190006BFF00F0BBFA03B4FFF7F2FF03BC00F003
:1001A000FFFA00000948804709480047FEE7FEE7DC
:1001B000FEE7FEE7FEE7FEE7FEE7FEE7FEE7FEE717
:1001C00004480549054A064B704700005D290008B0
:1001D000ED00000878020020780800207804002054
:1001E000780400200FB41CB5074B06AA7B4469466F
:1001F0000090059800F0A7F90020694600F0B6F9D4
:100200001CBC5DF814FB00007D0300002DE9F041EB
:100210000E460446002020622046E168884730B33D
:10022000252805D0D4E901219047206A401CF2E737
:10023000E168204600278847050018D0A5F1410055
:10024000192802D820354FF4006732462946204647
:100250002760FFF785FF40B1012804D0F61D26F086
:1002600007060836D8E7361DD6E72846DAE7206ABB
:10027000BDE8F0812DE9F04106460024106875299B
:10028000314616A510D0AFF30080002802DA4042B4
:1002900013A507E031688A0701D512A502E04907D6
:1002A00004D511A5012401E0AFF3008000210A224A
:1002B00006F1240709E0B0FBF2FCB0FBF2F302FB0D
:1002C0001C00303078541846491C0028F3D12346CE
:1002D0002A463046BDE8F04100F0D6B800000000E4
:1002E0002D0000002B0000002000000070B5064625
:1002F00000F0C6F80468054630460A22002100F0E6
:100300003AF92C6070BD30B505460B462A4613F805
:10031000014B12F8010B08B1A042F8D01CB1002823
:1003200002D06D1CF1E7284630BD40EA01030246C9
:1003300030B59B0710D14FF0013400E008C208C966
:100340001D1B9D4315EAC41FF8D013F0FF0102F8EE
:10035000011B0DD01B0AF8E711F8013B002B02F836
:10036000013B05D011F8013B002B02F8013BF3D112
:1003700030BD10B5431C02E010F8011B71B18107BC
:10038000FAD14FF0013202C88C1A8C4314EAC21120
:10039000F9D0C01A0A0603D0C01E10BDC01A10BD85
:1003A0000A0401D0801E10BD0902FCD0401E10BD01
:1003B000421E12F8013F002BFBD111F8013B002B2C
:1003C00002F8013BF9D1704710B5203AC0F00B801C
:1003D000B1E81850203AA0E81850B1E81850A0E849
:1003E0001850BFF4F5AF5FEA027C24BFB1E81850A3
:1003F000A0E8185044BF18C918C0BDE810405FEA13
:10040000827C24BF51F8043B40F8043B08BF70478E
:10041000D20728BF31F8023B48BF11F8012B28BF93
:1004200020F8023B48BF00F8012B70474FF0000254
:1004300000B5134694469646203922BFA0E80C50DA
:10044000A0E80C50B1F12001BFF4F7AF090728BFB5
:10045000A0E80C5048BF0CC05DF804EB890028BF31
:1004600040F8042B08BF704748BF20F8022B11F05A
:10047000804F18BF00F8012B7047704770477047D6
:1004800000487047180200202DE9F0470D469946B4
:100490009246044600F124080168880604D5E06904
:1004A00021F01001216000E00120A84201DD471B7E
:1004B00000E00027A1697A1902EB0900081AA0617F
:1004C0002078C00602D42046AFF30080002608E062
:1004D000D4E901211AF806009047206A401C761CD6
:1004E00020624E45F4DB2078C0060AD52046AFF3E3
:1004F000008006E0D4E9012130209047206A401CAA
:100500002062381EA7F10107F4DC07E0D4E90121DD
:1005100018F805009047206A401C2062281EA5F1AB
:100520000105F3DC2046AFF300802078000602D5F9
:100530000220BDE8F0870120FBE7000001694A1CAA
:1005400002610878704700B58FB0CDE90131002114
:10055000059105497944CDE9031011466846FFF736
:1005600055FE0FB000BD0000E5FFFFFF0A6802F86E
:10057000010B0A6070472DE9F04791460F4680460F
:100580000446002614F8015B2DB100F031F8006834
:10059000405DC007F6D12B2D02D02D2D18D0641E42
:1005A0004A463946204600F02BF827B13968A14267
:1005B00001D1C7F800804FF0020471050BD540420D
:1005C000002803DDFFF75CFF0460A007BDE8F087AB
:1005D00046F48066E4E70028F8DAFFF751FF04608C
:1005E0006FF00040F2E7000000487047180200205A
:1005F00010B500F079F8001D10BD00BF693600008D
:100600002DE9F05F824615468B4600270AF101046A
:10061000B9460078302801D09DB113E014F8010BE1
:100620000127782803D0582801D045B10AE00DB140
:10063000102D07D1002714F8010B102502E0082522
:1006400000E00A250026B0460EE005FB080005FB89
:1006500006F101271FFA80F801EB1046B6F5803F3E
:1006600000D3B94614F8010B294600F041F80028E0
:10067000EBDABBF1000F05D00FB1641E00E0544669
:10068000CBF80040B9F1000F06D0FFF7F9FE0221C8
:100690000160C81EBDE8F09F48EA0640FAE77546CB
:1006A000FFF7A2FFAE4605006946534620F007005B
:1006B000854618B020B5FFF783FDBDE820404FF018
:1006C00000064FF000074FF000084FF0000B21F03C
:1006D0000701AC46ACE8C009ACE8C009ACE8C00909
:1006E000ACE8C0098D4670470048704738020020CA
:1006F0003A2800D2303820F02002412A01D3A2F15A
:100700003700884201D34FF0FF30704710B50446E0
:10071000AFF300802046BDE81040FFF73CBD00006D
:100720004FF0013C50F8042B51F8043B9A4221D180
:10073000A2EB0C03934313EACC1317D150F8042B0C
:1007400051F8043B9A4215D1A2EB0C03934313EAF0
:10075000CC130BD150F8042B51F8043B9A4209D129
:10076000A2EB0C03934313EACC13DBD04FF0000051
:10077000704700BFD01A01BAB1FA81F101F0180137
:1007800022FA01F0CB40C1F12001DBB2C0B2C01AA5
:100790002CFA01F3D11A914311EAC311E6D1704743
:1007A00001491820ABBEFEE726000200704700009A
:1007B00070B5044600688168C943C90717D18168CC
:1007C00021F00101816000F0FBFD05460AE000BF59
:1007D00000F0F6FD401B022804D920688068C04361
:1007E000C00706D020688068C043C007F0D0002052
:1007F00070BDA06A40F01000A062E06A40F0010005
:10080000E062012070BD0000F8B5002604460096A5
:1008100000688168C943C9072DD0816841F0010192
:100820008160164816490068B0FBF1F000E0401EF8
:1008300000900028FBD100F0C3FD054616E000BF84
:1008400000F0BEFD401B022810D920688068C0431C
:10085000C0070BD0A06A40F01000A062E06A40F030
:100860000100E06284F824600120F8BD20688068FF
:10087000C043C007E4D10020F8BD000038000020CC
:1008800040420F00FEE710B50022012100F087F87A
:10089000BDE81040052000F087BC10B50446029862
:1008A000216022716371A0712820A0720620E0717E
:1008B0000C202072142060720820E072322000F0B8
:1008C00073FC00223321204600F069F80022332116
:1008D000204600F064F8052000F066FC002232217A
:1008E000204600F05CF8052000F05EFC002220218C
:1008F000204600F054F8052000F056FCE179002273
:10090000204600F04CF8217A0022204600F047F8FB
:10091000617A0022204600F042F8A17A00222046A7
:1009200000F03DF800220121204600F038F8204672
:100930000022BDE81040022100F031B830B4447903
:1009400000238C4201D8641EE1B28479944201D81C
:10095000641EE2B232B1012A06D0022A06D0032A6E
:1009600006D007E00B4605E0403102E0143100E01C
:100970005431CBB230BC43F08001002200F00FB8FC
:10098000012200F00CB870B50C46054603E028467D
:10099000641CFFF7F5FF21780029F8D170BD7CB504
:1009A00006460807040EF07A01F0F00518B145F08C
:1009B000080544F00804012A01D02AB108E045F0F6
:1009C000010544F0010403E025F0010524F00104D1
:1009D00045F004008DF80400012000F0E5FB8DF8DF
:1009E000055044F004008DF80600012000F0DCFB07
:1009F0004FF47A708DF8074000903179042301AAF2
:100A0000306800F0A7FD7CBD2DE9F047904689468F
:100A10008246002501271F4C00F0D2FCC4F80000DC
:100A200000F0CEFC60604146484600F0BFFC20B9B3
:100A3000D4E90001801C8842F2D82821504602F0F7
:100A400011FC4146484600F0B1FCE8B1C5F1070190
:100A500007FA01F03043C6B200F0B2FCC4F800005F
:100A600000F0AEFC60604146484600F09FFC20B1BB
:100A7000D4E90001801C8842F2D86D1CEDB2082D2B
:100A8000CAD33046BDE8F087C5F1070007FA00F089
:100A90008643E1E73C0000202DE9FF478146002521
:100AA00002200127CDE902508846CDE900271646ED
:100AB0002C466946404600F089FB002231464046FC
:100AC00000F079FC44F62061484602F0CBFB01229D
:100AD0003146404600F06FFC1E21484602F0C2FB42
:100AE000CDE901476946404600F070FB28214846A1
:100AF00002F0B8FB3146404600F058FC48B950219E
:100B0000484602F0AFFB3146404600F04FFC00B1D2
:100B1000012500F055FC0A4CC4F8000000F050FC20
:100B200060603146404600F041FC20B1D4E900014C
:100B3000801C8842F2D804B02846BDE8F087000047
:100B40003C00002070470000F8B5002504460095E1
:100B500090F82400012808D0012084F824002046C1
:100B6000FFF726FE060002D053E00220F8BDA06A7F
:100B700020F4885040F00200A062022000F046FEFF
:100B800026490968B1FBF0F0400000E0401E0090EB
:100B90000028FBD12046FFF737FE2068816841F02E
:100BA0000801816000F00CFC074608E000F008FC3A
:100BB000C01B0A2803D920688068000715D4206864
:100BC00080680007F2D42068816841F004018160E8
:100BD00000F0F6FB074612E000F0F2FBC01B0A280B
:100BE0000DD920688068400709D5A06A20F002006E
:100BF00040F01000A06284F824500120F8BD206865
:100C000080684007E8D4A06A20F0020040F00100AC
:100C1000A06284F824503046F8BD0000380000205F
:100C2000F8B50024009490F824202546012A12D01B
:100C3000012280F824204A681F23072A0DD2066863
:100C4000776B521E02EB820293409F430B689340E6
:100C50001F43776319E00220F8BD06680D2A0AD207
:100C6000376BD21F02EB820293409F430B68934085
:100C70001F43376309E0F76A0D3A02EB82029340A3
:100C80009F430B6893401F43F7620A680723066877
:100C90000A2A0AD3F7680A3A02EB420293409F43BA
:100CA0008B6893401F43F76008E0376902EB42020C
:100CB00093409F438B6893401F4337610A68102A13
:100CC00001D0112A20D1124B02689A4217D19368A1
:100CD0001B0219D4936843F4000393600968102938
:100CE00012D10C490C4A0968B1FBF2F101EB810108
:100CF000490000E0491E00910029FBD104E0816A0F
:100D000041F020018162012480F824502046F8BD82
:100D1000002401403800002040420F000068C06CF1
:100D2000704700002DE9F0414FF0000704003D46F8
:100D30007ED0A06A002628B9E66284F824602046A6
:100D400000F07EF82046FFF733FDA16AC90600D403
:100D500020B1A06A40F01000A06269E0A16A21F40D
:100D6000885141F00201A1626268E169237B0A4374
:100D700047EA43010A43A1684FF48077B94209D09A
:100D8000012907D05FF0000194F814C0BCF1010FF5
:100D900002D00AE03946F7E7F3B1A36A43F0200333
:100DA000A362E36A43F00103E3622368D3F804C05B
:100DB0002CF4694C4CEA010CC3F804C021688B6820
:100DC000DFF870C003EA0C0313438B60A168B942DB
:100DD0000BD0012909D00CE0DFF85CC0A3690CEB53
:100DE00043330B4343F40061DFE7218A0D05A5F58A
:100DF00080152168CB6A23F470032B43CB622168F2
:100E000089680E4B1940914208D1E662A16A21F02F
:100E1000020141F00101A162BDE8F081A06A20F069
:100E2000020040F01000A062E06A40F00100E062C1
:100E30000120F1E7FDF7E1FF00E0FFFFFE0E1FFFDD
:100E400000B585B0002100910191029103910068E5
:100E50000E49884218D10E48816941F400718161C0
:100E6000816901F400710491816941F0040181619B
:100E70008069694600F0040004900120009003207E
:100E80000190044800F0A2F905B000BD0024014023
:100E900000100240000801402DE9F84300270D46EC
:100EA0000446009700F08CFA804620688168C905E6
:100EB00008D5A06A40F02000A06284F824700120C8
:100EC000BDE8F8834168C90503D4C06A10F4700F07
:100ED0002AD0022000F09AFC3B490968B1FBF0F6E9
:100EE0002068036939490B424FEA61014FEAA112B8
:100EF0001FD1C3684FEA611C13EA0C0F19D10369B3
:100F00000B4225D1C068104222D1142023E0681C76
:100F10000AD02DB100F054FAA0EB0800A84203D982
:100F200020680068800725D5206800688007EED516
:100F30002DE003690B4202D1C168114206D002695B
:100F400023490A4206D1C068084203D1542002E076
:100F5000292000E0FC204643009816E0681C11D0D0
:100F60002DB100F02DFAA0EB0800A8420AD9009894
:100F7000B04207D2A06A40F00400A06284F8247056
:100F800003209DE70098401C0090B042E6D3216802
:100F90006FF012000860A06A40F40070A062206840
:100FA0008068C0F3424007280CD1207B50B9A06A6A
:100FB00020F48070A062A06AC00403D4A06A40F04C
:100FC0000100A06200207BE7380000202449922421
:100FD0004992240070B5044690F8240001280DD0F1
:100FE000012084F824002046FFF70EFC02004FF099
:100FF000000005D084F82400104670BD022070BDAA
:10100000A16A40F20123994341F48071A1621F4D0E
:1010100023681F49AB4218D10E6816F4702F14D004
:10102000A66A46F48016A6620E68760505D5A66AFD
:1010300026F4005646F48056A662A66AF6040AD53F
:10104000E66A26F00606E66206E0A66A26F4801640
:10105000A6625E68E9E7E06284F824006FF00200AF
:10106000186020688368C3F34243072B05D1A84268
:1010700008D1096811F4702F04D0816841F48011FF
:101080008160B9E7816841F4A001F9E700280140D7
:101090000424014010B5044690F82400012807D02C
:1010A000012084F824002046FFF782FB10B107E0FE
:1010B000022010BDA16A21F4885141F00101A16212
:1010C000002184F8241010BD10B590F821100022E2
:1010D000022905D00421816380F82020012010BD61
:1010E00001680B6823F00E030B6001680B6823F0A6
:1010F00001030B6090F84030C46B012101FA03F347
:10110000636080F8211080F82020104610BD000098
:1011100010B590F821100024022903D00421816326
:1011200001243DE001680A6822F00E020A600168AD
:101130000A6822F001020A601A4A0168914201D14C
:10114000012121E0174A1432914201D110211BE004
:10115000144A2832914201D1891515E0114A3C32D6
:10116000914201D189140FE00E4A5032914202D1CE
:101170004FF4803108E00B4A6432914202D14FF4BF
:10118000801101E04FF08071064A083A5160012158
:1011900080F82110002180F82010416B01B18847B0
:1011A000204610BD0800024070B5044600F008F962
:1011B0000546601C02D004480078044400F000F9A1
:1011C000401BA042FAD370BD2C0000202DE9F84F3F
:1011D000DFF8B891002409F1040A0AF1040B234650
:1011E0000F270BF1040EC9E00125A5402A40AA42B1
:1011F0007DD1674ED1F804C0ACEB0608B44532D0BF
:1012000014DCBCF1030F3AD009DCBCF1000F2AD08A
:10121000BCF1010F1CD0BCF1020F31D11DE0BCF1BB
:10122000110F17D0BCF1120F2AD119E0B8F5881FA1
:1012300019D006DCB8F5803F15D0B8F5801F1FD156
:1012400011E0B8F5001F0ED0B8F5041F18D10AE060
:10125000CB6815E0CB681B1D12E0CB6808330FE0AC
:10126000CB680C330CE08B682BB1012B4FF00803DB
:1012700003D0456104E0042302E0056100E000239F
:10128000FF2A01D8064601E000F104064FEA840572
:1012900001D9A5F12005D6F8008007FA05FC28EA57
:1012A0000C0803FA05F548EA0508C6F800804D6801
:1012B000ED0062D5374DAE6946F00106AE61AD690D
:1012C00024F0030605F001050095334D06EB050CEF
:1012D000DCF80850A607360F07FA06F825EA0805D5
:1012E000DFF8B880404503D14FF0000817E044E034
:1012F000DFF8AC80404502D14FF001080FE0DFF885
:10130000A480404502D14FF0020808E0DFF8988041
:10131000404502D14FF0030801E04FF0040808FAFD
:1013200006F848EA0508CCF808804D68D9F800604E
:10133000ED034D4601D5164300E096432E604D68FF
:10134000DAF80060AD03554601D5164300E0964338
:101350002E604D68DBF80060ED025D4601D5164356
:1013600000E096432E604D68DEF80060AD027546E1
:1013700001D5164300E096432E60641C0D682A4692
:10138000E5407FF431AFBDE8F88F00000004014074
:101390000000111000100240000001400008014050
:1013A000000C01400010014000140140806808401A
:1013B00000D0012070470AB1016170470904FBE7C2
:1013C00001488068704700002C00002070B50400C0
:1013D00025D094F83D00002520B984F83C502046E3
:1013E00000F04EF9242084F83D002068016821F0C7
:1013F000010101602068016841F40041016020683A
:10140000016821F40041016000F070FB4D4A616801
:10141000914201D84C4900E04C49884201D2012058
:1014200070BD4B492368B0FBF1F15E6826F03F06C2
:101430000E435E606368934206D94FF49673594336
:101440004FF47A73B1FBF3F12368491C1E6A26F04E
:101450003F06314319626168914210D84900401E2D
:10146000B0FBF1F2521CC2F30B02042A01D2042099
:1014700022E0B0FBF1F0401CC0F30B001CE0A268BE
:10148000F2B301EBC10303EB0116431EB3FBF6F30A
:101490005B1C43F480431B0549D092B301EBC102AE
:1014A00002EB0111401EB0FBF1F0401CC0F30B0039
:1014B00040F4804040F400402168CA694CF6FF7354
:1014C0009A431043C861D4E90710014320680268B9
:1014D00022F0C00211430160D4E9030101432068F6
:1014E000826848F2FF339A4311438160D4E90501D1
:1014F00008432168CA6822F0FF021043C86001E077
:101500000EE016E02068016841F0010101602564E9
:10151000202084F83D00256384F83E50002070BDF3
:1015200001EB4106431EB3FBF6F35B1CB3E701205E
:10153000C2E701EB4101401EB0FBF1F0401CC0F3DB
:101540000B00B7E7A086010080841E0000093D0063
:1015500040420F002DE9F84F1F4690468A46044648
:10156000DDF82890FFF72CFF054694F83D00202871
:101570007FD11923012240492046009501F06AF8E5
:10158000002876D194F83C00012872D0012084F81C
:101590003C0020680168C90703D1016841F00101DE
:1015A00001602068016821F400610160212084F855
:1015B0003D00102084F83E0000262664C4F82480F4
:1015C0006785608D20852D48E0622B464A4651464E
:1015D000204600F0CBFF90B92068416980690090F7
:1015E00036E02A464946204601F0B3F850B1206C57
:1015F000042804D12068016841F4007101600120D1
:10160000BDE8F88F606A216800780861606A401C54
:101610006062618D491E6185218D491E89B22185D7
:1016200022685369DB435B070BD451B1007810612A
:10163000606A401C6062608D401E6085208D401E87
:1016400020852A464946204600F0DEFF0028CED1FC
:10165000208D0028C5D154F83D0B016841F400717C
:101660000160202004F81E09E67766770020C7E7AE
:10167000FFE70220C4E70000020010000000FFFFA7
:1016800010B586B00021009101910291039100688C
:101690000F4988421AD10F4CA06940F00800A061A0
:1016A000A069694600F008000490C0200090122054
:1016B0000190032003900848FFF788FDE06940F49B
:1016C0000010E061E06900F40010049006B010BD65
:1016D0000054004000100240000C014002488168A4
:1016E00002781144816070472C000020074810B533
:1016F000016841F010010160032000F075F80F202F
:1017000000F006F800F024F8002010BD0020024090
:1017100070B50D4D04464FF47A712878B1FBF0F0A6
:101720000A490968B1FBF0F000F0C6FB48B9102C7B
:1017300007D200222146501E00F036F800206C60CF
:1017400070BD012070BD00002C000020380000207A
:101750000C4808B5816941F001018161816901F09E
:1017600001010091C16941F08051C161C06900F07F
:10177000805000900448416821F0E06141F0007120
:10178000416008BD0010024000000140002809DB54
:1017900000F01F02012191404009800000F1E0208B
:1017A000C0F8001170470000F0B40E4B1B680C46E7
:1017B000C3F30223C3F10705042D00D90425191D25
:1017C000072901D2002300E0DB1E012606FA05F1FD
:1017D000491E214099409E40761E16403143F0BC80
:1017E00001F055BA0CED00E0064900F00702086868
:1017F0004FF6FF03184040EA0220034A10430860F6
:10180000704700000CED00E00000FA0510B529A4B7
:1018100001461DCC86B08DE81D002AA02A4C006828
:1018200004900020012923D002293AD010291DD18B
:1018300061682268D20119D5C1F38342C9031DF83A
:10184000020009D5616804AAC1F34041515C1F4AF6
:10185000B2FBF1F1484301E01D4948436168490288
:1018600004D440005FF00301B0FBF1F006B010BDFE
:10187000226AC2F30121012903D1920701D5C803CD
:10188000F4E7022905D1626A920702D549F6404081
:10189000ECE70329EAD121688903E7D54FF2244018
:1018A000E4E700F033F96168C1F38131491C490074
:1018B000DAE7000002030405060708090A0B0C0D0D
:1018C0000E0F1010010200000010024000127A00FA
:1018D00000093D002DE9F84305460078354CC00766
:1018E00054D0E0690026C00008D4E06940F0805080
:1018F000E061E069012600F0805000902E48016808
:10190000C90512D40168804641F480710160FFF777
:1019100057FD074605E000BFFFF752FDC01B6428D6
:1019200023D8D8F80000C005F6D5206A10F440701E
:1019300021D0A98801F4407181421CD0206A1F493E
:10194000012220F440700A6000220A602062C00771
:1019500011D0FFF735FD074641F2883808E000BF97
:10196000FFF72EFDC11B414502D90320BDE8F883D6
:10197000206A8007F4D5206A696820F44070084323
:1019800020621EB1E06920F08050E0612878800775
:1019900005D56068A96820F4404008436060287855
:1019A000C00605D56068E96820F4800008436060DF
:1019B0000020DBE70010024000700040400442427B
:1019C0002DE9F0470F46050061D0434E306800F026
:1019D0000700B84209D2306820F007003843306071
:1019E000306800F00700B84251D128683B4C8107AD
:1019F00012D5400703D5606840F4E0606060287845
:101A0000000703D5606840F4605060606068A968B2
:101A100020F0F000084360602878C00728D068688C
:101A2000012810D02168022810D0890700292EDA59
:101A3000616821F0030101436160FFF7C1FC80464A
:101A400041F288390DE021688903EFE78901EDE76C
:101A5000FFF7B6FCA0EB0801494502D90320BDE819
:101A6000F0876068696800F00C00B0EB810FEFD17F
:101A7000306800F00700B8420BD9306820F007004A
:101A800038433060306800F00700B84201D00120D0
:101A9000E5E72878400705D56068E96820F4E0604C
:101AA000084360602878000706D56068296920F43B
:101AB000605040EAC100606000F038F86168084A90
:101AC000C1F30311515CC84006490860064800682C
:101AD000FFF71EFE0020C2E7002002400010024077
:101AE0006246000838000020300000200448054904
:101AF00000684968044AC1F30221515CC84070473C
:101B000038000020001002407246000804480549D1
:101B100000684968044AC1F3C221515CC84070475B
:101B200038000020001002407246000812A185B063
:101B30000FC98DE80F0014A0144A00680490516882
:101B4000134801F00C03042B10D0082B0ED1C1F365
:101B50008343C9031DF803000AD5516804AAC1F3E1
:101B60004041515C0A4A5043B0FBF1F005B0704768
:101B700008494843FAE7000002030405060708097C
:101B80000A0B0C0D0E0F1010010200000010024095
:101B900000127A0000093D002DE9F84F040070D0D2
:101BA0002078C04DC00749D06868C0F38100012883
:101BB00007D06868C0F38100022809D16868C003B3
:101BC00006D52868800339D560680028E7D035E05D
:101BD0006068B0F5803F0BD010B1B0F5A02F11D0E8
:101BE000286820F480302860286820F4802002E0F3
:101BF000286840F480302860606890B1FFF7E0FB0F
:101C000006460AE0286840F480202860F0E700BF1C
:101C1000FFF7D6FB801B642873D828688003F7D5AC
:101C20000CE0FFF7CDFB064605E000BFFFF7C8FB61
:101C3000801B6428F0D828688003F7D420789A4E57
:101C400080074FF001094FF0000839D5686810F09F
:101C50000C0F07D06868C0F38100022809D16868BA
:101C6000C00306D42868800714D52069012808D14C
:101C700010E02069B0B1C6F80090FFF7A1FB07465D
:101C800005E00AE1FFF79CFBC01B0228C4D82868C6
:101C90008007F7D52868616920F0F80040EAC100A4
:101CA00028600DE0C6F80080FFF78AFB074604E0D5
:101CB000FFF786FBC01B022823D828688007F7D4CB
:101CC000207800072CD57948A169D9B1C0F80090D7
:101CD000FFF776FB074604E0FFF772FBC01B022804
:101CE0000FD8686A8007F7D571484FF4FA51006839
:101CF000B0FBF1F0009000BF0098411E0091FAD2B5
:101D00000EE080E0C0F80080FFF75AFB074604E0D1
:101D1000FFF756FBC01B022875D8686A8007F7D406
:101D20002078400760D5E8690027C00008D4E8693A
:101D300040F08050E861E869012700F08050009091
:101D40005C480168C90513D40168834641F4807179
:101D50000160FFF735FB824606E000BFFFF730FB6E
:101D6000A0EB0A0064284ED8DBF80000C005F5D5CA
:101D7000E06801280AD008B1052813D0286A20F0AD
:101D800001002862286A20F0040002E0286A40F07E
:101D900001002862E06841F2883B98B1FFF710FB30
:101DA00082460BE0286A40F004002862EEE700BF9C
:101DB000FFF706FBA0EB0A0159455AD8286A8007AD
:101DC000F6D50CE0FFF7FCFA824605E0FFF7F8FADB
:101DD000A0EB0A0159454CD8286A8007F6D41FB1F8
:101DE000E86920F08050E861E06988B36968C1F370
:101DF0008101022944D00228C6F8608004D0FFF790
:101E0000DFFA044638E034E0FFF7DAFA074604E088
:101E1000FFF7D6FAC01B02282BD828688001F7D418
:101E2000206AB0F5803F05D16868A16820F40030D1
:101E300008436860D4E908010843696821F4741113
:101E400008436860C6F86090FFF7BAFA044606E0F7
:101E500025E000BFFFF7B4FA001B022809D8286864
:101E60008001F7D51BE000BFFFF7AAFA001B02288C
:101E700002D90320BDE8F88F28688001F4D40EE071
:101E80000128F7D06868226A00F48031914204D1B9
:101E9000616A00F47010884201D00120EAE7002056
:101EA000E8E7000000100240000042428004424285
:101EB000380000200070004010B5401EB0F1807F57
:101EC00001D3012010BD4FF0E02460610F216017A5
:101ED00000F0DDFE0020A06107202061002010BD81
:101EE00070B590F83C20012A26D0012480F83C40AF
:101EF000022280F83D2003685A689D6822F070062F
:101F00000A6832435A600D4B02689A4208D0B2F117
:101F1000804F05D00A4B9A4202D00A4B9A4204D114
:101F2000496825F080031943916080F83D40002105
:101F300080F83C10084670BD022070BD002C0140A6
:101F4000000400400008004010B5040003D094F8DD
:101F50003D0010B107E0012010BD002084F83C00D6
:101F6000204600F01FF8022084F83D00211D206863
:101F700000F0F6FC012084F8460084F83E0084F866
:101F80003F0084F8400084F8410084F8420084F85F
:101F9000430084F8440084F8450084F83D000020A4
:101FA00010BD000008B500680649884208D10648FF
:101FB000816941F400618161806900F400600090F2
:101FC00008BD0000002C01400010024090F83D10B8
:101FD000012901D001207047022180F83D100068DE
:101FE0000B49884208D0B0F1804F05D0094988429A
:101FF00002D00949884204D1816801F0070106290D
:1020000003D0016841F00101016000207047000029
:10201000002C0140000400400008004001680A6AEA
:1020200041F211131A4207D10A6A9B101A4203D1D6
:102030000A6822F001020A60012180F83D100020A8
:10204000704770B5044690F83C00012817D0012570
:1020500084F83C50022084F83D002068826822F019
:10206000770222F47F4282600868502830D00DDC6D
:1020700020284DD005DC98B310283BD148E0022041
:1020800070BD302844D0402834D139E0602828D0B1
:10209000702806D0B0F5805F2CD0B0F5005F29D154
:1020A0000AE0CB68D1E90121206800F08FFC2068AC
:1020B000816841F0770109E0CB68D1E9012120680E
:1020C00000F084FC2068816841F48041816011E067
:1020D000CA684968206800F08BFC5021206807E03E
:1020E00016E0CA684968206800F093FC6021206807
:1020F00000F076FC84F83D50002084F83C0070BD70
:10210000CA684968206800F073FC40212068EFE746
:10211000226801461046EBE770477047F8B5026841
:1021200004461068D168536910F00F0F4FF0000596
:1021300053D003F0010601F4907737435FD0C20714
:1021400005D0CA0503D5226C42F001022264420781
:1021500005D5DA0703D0226C42F00202226482071E
:1021600005D5DA0703D0226C42F00402226402078C
:1021700007D501F02002324303D0226C42F008025E
:102180002264226C002A34D0800604D5880602D549
:10219000204600F070FC20684069216CC0F380107C
:1021A000090700D430B3204600F04DFC2068416997
:1021B00049061BD5416921F040014161A06BA8B1DE
:1021C00058494163A06BFEF7A3FF002811D0A06B14
:1021D000416B01B0BDE8F040084783060FD58B0680
:1021E0000DD52046BDE8F84000F045BC2046FFF77D
:1021F00094FFF8BD2046FFF790FF2564F8BD266BDD
:102200002023012E52D1C60650D5CE064ED51068D9
:1022100050680090506940062AD5A16B0868406854
:102220000004000CEAD0A68D8642E7D9E0858869D3
:10223000202818D0D06820F48070D06020684169D0
:1022400021F0010141612068416921F040014161B3
:1022500084F83E3025632068C16821F01001C16018
:10226000A06BFEF731FFA08DE18D401A81B219E01D
:10227000A08DE18D401A81B2E08D0028BED00029EA
:10228000BCD0D06820F49070D0602068426922F001
:102290000102426184F83E3025632068C26822F062
:1022A0001002C2602046FFF737FFF8BD05062BD5A8
:1022B0000D0629D594F83D002128F6D1A068B0F587
:1022C000805F01D12069B0B1206A411C2162216880
:1022D00000784860E08C401E0004000CE084E4D1EB
:1022E0002068C16821F08001C1602068C16841F0A8
:1022F0004001C160F8BD206A0088C0F3080050604A
:10230000206A801C2062E5E74006F3D54806F1D537
:10231000D168204621F04001D16084F83D3000F0C2
:102320000CF9F8BD372A000870B5040004D094F801
:102330003D00002510B106E0012070BD84F83C503E
:10234000204600F023F8242084F83D002068C1686E
:1023500021F40051C160204600F0E8FB20680169CB
:1023600021F4904101612068416921F02A01416115
:102370002068C16841F40051C1602564202084F8C0
:102380003D0084F83E00002070BD000030B585B0EF
:102390000024009401940294039400681849884230
:1023A0002CD11848816941F480418161816901F42F
:1023B00080410491816941F0040181618069124D7D
:1023C00000F0040004904FF400700090022001908F
:1023D0000320039069462846FEF7F8FE2815CDE94C
:1023E0000004694628460294FEF7F0FE002201210F
:1023F0002520FFF7D9F92520FFF7C8F905B030BD32
:1024000000380140001002400008014090F83E30C2
:10241000202B0ED159B152B190F83C30012B08D08D
:10242000012380F83C300023036300F0DBBB012074
:10243000704702207047000011490068096888420F
:102440001CD110480E4902785C31C3788B54521C61
:10245000D2B2027000238B54114411F8012C4B2A84
:1024600006D111F8021C4F2902D10370012101711C
:1024700004490122C91C0248FFF7C8BF7047000089
:1024800010010020000000202DE9F843044690F8D8
:102490003D001F4616460D4620284CD1C5B1BEB1A1
:1024A00094F83C00012846D0012084F83C004FF00D
:1024B0000008C4F84080212084F83D00FEF780FF2A
:1024C000A6848146E684A068B0F5805F03D004E06E
:1024D0000120BDE8F883206928B12E465FF0000591
:1024E00084F83C800EE00026FAE78021204600F0C8
:1024F00094FBA0B9AEB116F8010B21684860E08CDE
:10250000401EE084E08C4B464FF00002009700280C
:10251000EBD14FF04001204600F07FFB30B10320AB
:10252000D7E735F8020BC0F30800E6E7202084F86F
:102530003D000020CDE70220CBE77047FEE70168B1
:102540004A69D24352050FD46FF480624A61002178
:1025500040F8301F202242738173026942F0040266
:10256000026101730120704700207047F8B50446EE
:10257000C06A1E460D461746082807D0012805D018
:1025800010F5803F02D0206B122804D1206801682A
:1025900041F480710160134600224FF00111204682
:1025A000009600F057F840B120680068C00502D5D9
:1025B0004FF4007020640320F8BD2069B0F5804F0F
:1025C0000ED00620216800EAD51040F0F000086126
:1025D00033463A460B49204600F070F878B902E0DD
:1025E00005F0FE0000E0E8B22168086105493346C5
:1025F0003A46891F204600F061F80028DCD001200F
:10260000F8BD00000800010070B516460D460446EE
:102610000DE02046FFF793FF08B1012070BD681C54
:1026200005D0FEF7CDFE801BA84207D835B1206843
:102630004069C0434007ECD4002070BD002044F83E
:10264000300F20216173A073216941F020012161C5
:102650002073E2E72DE9F0471E4690460D460446FA
:10266000C1F30747DDF8209008E0701C06D0FEF7A4
:10267000A7FEA0EB0900B0420FD876B12068012F69
:1026800018D0806925EA00000004000C14D0002155
:102690004145EAD00020BDE8F087002044F8300F23
:1026A00020216173A073216941F020012161207311
:1026B0000120F0E74069E5E70121E9E72DE9F0476E
:1026C0009A4691460E46044600254FF02008C1F375
:1026D000074725E020684069C043400514D42068BE
:1026E000016841F40071016021686FF48060486105
:1026F000256384F83D8084F83E50206C40F004004F
:10270000206484F83C501FE0B9F1FF3F08D0FEF789
:1027100057FEA0EB0A0149450CD8B9F1000F09D0CA
:102720002068012F13D0806926EA00000004000C05
:102730000BD0CFE744F8305F84F80D80A573206993
:1027400040F02000206125730120BDE8F08740693A
:10275000EAE770B516460D4604460DE02046FFF741
:10276000EEFE08B1012070BD681C05D0FEF728FE02
:10277000801BA84207D835B120684069C0430006D5
:10278000ECD4002070BD002044F8300F202161738C
:10279000A073216941F0200121612073E2E700006C
:1027A0003EB5002410480094019402940D498460C1
:1027B000016004730475012505614FF460214460D4
:1027C000C161FEF7AFFA08B172B6FEE7CDE9004588
:1027D000694605480294FEF723FA002801D072B634
:1027E000FEE73EBD002401404400002070B586B0E5
:1027F00000241C480094019402940394816941F0E0
:1028000020018161816901F020010491816941F019
:1028100004018161816901F004010491816941F041
:10282000080181618069104E00F0080004900022C8
:10283000F0213046FEF7BFFDF0200125CDE900056F
:102840000220CDE9024069463046FEF7BFFC4FF456
:1028500060408DE8310069460448FEF7B7FC06B0D9
:1028600070BD00000010024000080140000C014053
:1028700010B586B000241748009401940294039484
:1028800004941349059401604721C0E901144FF6EF
:10289000FF71C0E9031444618461FFF755FB08B17F
:1028A00072B6FEE74FF48050009069460948FFF782
:1028B000C8FB08B172B6FEE7049404A90548059464
:1028C000FFF70EFB002801D072B6FEE706B010BD80
:1028D000002C0140C8000020FEE7FEE7704770476B
:1028E000FEF7FCBE30B593B028216846FDF79EFD8B
:1028F00014210AA8FDF79AFD002501200F951095D7
:102900001195010412958DE8230004904FF4E01016
:10291000CDE90810022407946846FFF73DF908B195
:1029200072B6FEE70AA90F2081E831004FF48060FB
:10293000CDE90D0502210AA8FFF742F808B172B6E9
:10294000FEE74FF4004011900F940FA8FEF7C2FF6E
:10295000002801D072B6FEE713B030BD704700000A
:10296000F0B50268164B174C174D4FF08047984250
:1029700005D0B84203D0A04201D0A84203D122F032
:1029800070064A683243984205D0B84203D0A0424C
:1029900001D0A84203D122F44074CA6822434C6992
:1029A00022F08002224302608A68C2620A68826260
:1029B000984201D10969016301214161F0BD000024
:1029C000002C0140000400400008004010B584685D
:1029D00042EA032224F47F440A432243826010BD6A
:1029E000826822F070020A4342F00701816070475A
:1029F00010B5036A046A24F001040462846924F0B7
:102A0000F00444EA021423F00A020A4384610262D9
:102A100010BD10B5036A23F0100303628369046AD2
:102A200023F4704343EA023224F0A00343EA011185
:102A30008261016210BD10B5406A0021C185C18468
:102A4000FFF76BFB10BD0168CA6822F49072CA6080
:102A500001684A6922F001024A61016B012904D12F
:102A60000168CA6822F01002CA60202180F83E1076
:102A700000210163704708B590F83E10222901D06B
:102A8000022008BD82684FF480539A4201D1016947
:102A900021B1816A9A421BD04AB10AE00268816A78
:102AA0005268C2F308020A80816A891C08E0026940
:102AB00072B10268526802F07F020A70816A491C92
:102AC0008162C18D491E0904090CC18503D019E03A
:102AD00002685268F1E70168CA6822F02002CA6001
:102AE0000168CA6822F48072CA6001684A6922F0EB
:102AF00001024A61202180F83E10016B012903D0B8
:102B0000FFF79AFC002008BD002101630168CA6834
:102B100022F01002CA6001680A68D20602D50A686B
:102B200049680091818DFFF7F7FAEBE770B504462D
:102B300000680169E26821F4405111430161216993
:102B4000A0680843616908432168CA6841F20C63C0
:102B50009A430243CA6020684169A26921F4407126
:102B6000114341611E492068884202D1FEF7CEFF21
:102B700001E0FEF7BBFF00EBC00101EB0012606853
:102B800064218000B2FBF0F3B3FBF1F36FF01806A1
:102B90007343B2FBF0F5B2FBF0F605EB830532238D
:102BA00003EB0515B5FBF1F5B6FBF1F605F0F00505
:102BB00005EB0615B2FBF0F6B2FBF0F0B0FBF1F05E
:102BC0006FF01802504306EB800003EB0010B0FBDF
:102BD000F1F0216800F00F002844886070BD00000B
:102BE0000038014081628285C28500210164222271
:102BF00080F83E2080F83C100168CA6842F4807278
:102C0000CA6001684A6942F001024A610068C1680D
:102C100041F02001C160002070472DE9F041984645
:102C200017460E460446069D1DE0681C1BD02DB1BC
:102C3000FEF7C6FBA0EB0800A84214D92068C168C3
:102C400021F4D071C1602068416921F00101416126
:102C5000202084F83D0084F83E00002084F83C00E9
:102C60000320BDE8F0812068006836EA000004D047
:102C70000020B842D9D00020F3E70120F9E7000096
:102C80000148FFF74BBA000010010020FEE70907DA
:102C9000090E002804DB00F1E02080F800147047E2
:102CA00000F00F0000F1E02080F8141D704770471D
:102CB0007047000070B5444C424DD4E9022361785E
:102CC000A8420ED1414DE81031B1012903D1AB42E8
:102CD00000D81844E06070BDAA4200D81044A0603B
:102CE00070BD384D1835A84217D1394D44F62060D3
:102CF00029B10129F4D183420AD2E56070BD824234
:102D000001D2A56070BDA2F51C52103AA26070BD40
:102D1000A3F51C53103BE36070BD2A4A3032904249
:102D2000FAD1022929D0C9B30129F5D1A2F1A00015
:102D3000FDF7A9FD2348002211467038FDF7FEFD7E
:102D4000204824A17038FDF71EFE1E4800220821ED
:102D50007038FDF7F3FD1B4820A17038FDF713FE16
:102D60001848012200217038FDF7E8FD15481DA123
:102D70007038FDF708FE022021E012487038FDF798
:102D800082FD1048002211467038FDF7D7FD0D482E
:102D900016A17038FDF7F7FD002010E0FFE70948A5
:102DA0007038FDF770FD0748002211467038FDF7B6
:102DB000C5FD044810A17038FDF7E5FD01206070E5
:102DC00070BD0000D001002000000020803801000C
:102DD000905F010054656D3A0000000048756D3A3F
:102DE000000000004761733A00000000446874204E
:102DF000706572693A2000004761732070657269DE
:102E00003A200000704770B50446818A0069FEF7D9
:102E1000CDFAA1780126814204D0A070E670FEF7B9
:102E2000CFFA6060E078002540B1FEF7C9FA61682A
:102E3000401A0F2802D3A0782070E57020786178BE
:102E4000884210D0F8B1FEF7BBFAA168401AB0F57D
:102E50007A7F02D82046FFF72AFF2046FFF7D2FFED
:102E6000257320786070207B00280BD0FEF7A8FA2D
:102E7000A168401A40F6B831884203D32046FFF7D4
:102E800017FF257370BD26732046FFF713FFFEF76B
:102E900097FAA060E5E70123837043700370016136
:102EA0008282704770B505460124FDF762FAC2B20E
:102EB000002107E0685C30380A2801D3002411465D
:102EC000491CC9B29142F5D3204670BDFEB50C46EF
:102ED000064601F0FFF90546002020702A4618A199
:102EE0006846FDF77FF969462046FDF71EFA15A1F1
:102EF0002046FDF75DFA284601F008FA314601F058
:102F000031FB114901F062FA01F0E4F902000AD044
:102F10000A2A0BA1684608DAFDF764F90BA12046DE
:102F2000FDF746FA03E00AA102E0FDF75BF9694606
:102F30002046FDF73DFA07A12046FDF739FAFEBD10
:102F4000256400002E0000000000C8423000000090
:102F5000303000000A0000003EB500210090012042
:102F6000CDE9010169460B48FDF75AFE08B172B67A
:102F7000FEE70848FEF72EF84FF47A710548FDF792
:102F80008BFF0448FDF7CAFE84B20248FEF782F8C0
:102F900020463EBD4400002000B58BB020220D49E4
:102FA0006846FDF711FA0C48008801F0C7F908A936
:102FB000FFF78CFF08A96846FDF7FAF96846FDF7A8
:102FC000D8F982B2642369460448FFF75DFA0BB072
:102FD00000BD0000944900080600002010010020F8
:102FE00000B58BB020220C496846FDF7EDF90B487F
:102FF00008A98068FFF76AFF08A96846FDF7D8F9B5
:103000006846FDF7B6F982B2642369460448FFF7C3
:103010003BFA0BB000BD00007449000854010020C9
:103020001001002000B58BB020220C496846FDF746
:10303000CBF90B4808A90068FFF748FF08A96846C4
:10304000FDF7B6F96846FDF794F982B26423694644
:103050000448FFF719FA0BB000BD000054490008FE
:1030600054010020100100200EB5FEF73FFBFFF7D2
:1030700039FCFFF7BBFB6E486C49002401606D49C9
:10308000C0E901144FF48045C0E9034544618461FF
:10309000C4610462FEF79AF908B172B6FEE7FFF761
:1030A0007FFB634864499C3001604FF4E131C0E923
:1030B00001140C21C460C0E904418461C461FFF7BC
:1030C00033F908B172B6FEE7FFF7D2FB5848303843
:1030D000FDF73AFD594C4FF4005221465848FFF78E
:1030E000DAFE57482A4621461830FFF7D4FE5448E6
:1030F0004FF4004221463030FFF7CDFE4C4801220C
:1031000050499C30FFF782F9022049490090102372
:103110004E2201F1EC00FDF7C0FB494800221146A8
:103120007038FDF70BFC464847A17038FDF72BFCC3
:103130004348002208217038FDF700FC404844A1B4
:103140007038FDF720FC3E48012200217038FDF761
:10315000F5FB3B4840A17038FDF715FC394C404D5C
:1031600042F21076B4F10304FEF72AF96169401ABD
:10317000A16888421DD92E48102229465430FDF7F7
:103180008BFC98B12A4910232A465431684600F036
:1031900081F82B489DE80E007C3880E80E00A0786E
:1031A000012803D1FFF73EFFFFF71AFFFEF708F9EA
:1031B0006061FEF705F9A169401AE16888420BD900
:1031C0000020FFF7C9FEE080A078012801D1FFF7B9
:1031D000E3FEFEF7F5F8A0611948643800F08CFCB6
:1031E00000F04EFCFEF7ECF8216A401AB04204D918
:1031F00000F04CF9FEF7E4F820621148FFF703FEF7
:103200000F481830FFF7FFFD0D483030FFF7FBFD8A
:10321000FEF7D6F8E169401A21698842A4D900F086
:103220009FF8FEF7CDF8E0619EE7000000540040F3
:1032300074000020A086010000380140000C01400D
:10324000D00100200300002048756D3A0000000006
:1032500054656D3A000000004761733A00000000B9
:103260000008014070B504460D4621680020486200
:1032700021684FF6FF70C862E0602046FEF7A6FEA8
:103280002068416AA942FCD32046BDE87040FEF7A1
:10329000C5BE00002DE9FF5F83462D4801AB90E8D5
:1032A000700093E80700FDF7AFFB01AB824693E89F
:1032B0000700FDF7A9FB01AB814693E80700FDF786
:1032C000A3FB01AB804693E80700FDF79DFB01AB34
:1032D000074693E80700FDF797FB0AEB090202EBAC
:1032E0000801394481422DD1384600F05BFE194E69
:1032F0000022334600F0FEFC00F0CAFC04464046C3
:1033000001F01CF8214600F0B5FE0446124901F018
:103310005DF8124900F01CFF4FF0844100F0AAFE56
:103320000546484600F03EFE0022334600F0E2FC2F
:1033300000F0AEFC0646504601F000F8314600F0C1
:1033400099FE0646CBE90045CBF80860BDE8FF9F33
:103350007C46000800002440000010410000A0400E
:1033600070B5424800249AB0007802280FD0002897
:1033700075D0012870D100220A213D48FDF7DEFA00
:103380003C483DA102686846FCF72CFF5EE0002245
:1033900004213748FDF7D2FA384E69463068FFF706
:1033A00095FD6846FCF7E5FF6D46284400F8014CA2
:1033B0002846FCF7DEFF284400F8014C6846FCF77D
:1033C000D8FF042803D22EA16846FCF7F1FF694616
:1033D0002748FDF7D8FA8DF8004000220C21244838
:1033E000FDF7ACFA6946B068FFF770FD6846FCF778
:1033F000C0FF284400F8014C6846FCF7BAFF284497
:1034000000F8014C6846FCF7B4FF042803D21CA165
:103410006846FCF7CDFF69461548FDF7B4FA8DF80C
:103420000040012204211248FDF788FA154812A134
:1034300002886846FCF7D6FE03E011A16846FCF757
:10344000B7FF6846FCF795FF0428F6D3694608489D
:10345000FDF799FA8DF800401AB070BDFFE7002221
:103460000A210348FDF76AFA07488AE701000020AD
:10347000600100200C0000202564000054010020A1
:1034800020000000060000200800002010B51748AA
:10349000154C007800F052FF216800F063FF05D85A
:1034A00064232C2212A11E48FEF7EEFF1D4800786F
:1034B00000F044FFA16800F055FF05D864232922DD
:1034C00019A11748FEF7E0FF224823490088098820
:1034D000884207D36423BDE8104032221FA1104860
:1034E000FEF7D2BF10BD00005401002024000020D0
:1034F0000A5761726E696E673A2074656D70657205
:10350000617475726520657863656564732074689D
:1035100065207468726573686F6C640A000000004F
:1035200010010020250000200A5761726E696E6745
:103530003A2068756D69646974792065786365659A
:10354000647320746865207468726573686F6C6456
:103550000A00000006000020260000200A576172C1
:103560006E696E673A2067617320636F6E63656E84
:1035700074726174696F6E20657863656564732029
:10358000746865207468726573686F6C640A000003
:1035900070B500240D469AB012312646B0B101280C
:1035A00046D002287FD0032875D0042874D0A54ABD
:1035B0000528117871D0062870D007286FD0082808
:1035C0006ED009286DD00A286CD02DE100960196A6
:1035D00028460296FCF7A9FE684604E00155011949
:1035E000641C4E70E4B2295D4F2903D02A19527829
:1035F0004B2AF3D1FFF756FC012853D16846FCF75C
:1036000075FEA0F10A01512909D3642320228EA15D
:103610009648FEF739FF64232A2295A1D5E04FF49E
:103620007A7148439D496423162208609CA1CCE02E
:103630000096019628460296FCF777FE684604E05D
:1036400001550119641C4E70E4B2295D4F2903D065
:103650002A1952784B2AF3D1FFF724FC0128CCD148
:103660006846FCF743FEA0F10A01512909D36423FF
:10367000202291A17D48FEF707FF64232A2297A10B
:10368000A3E04FF47A7148439F49642316220860EF
:103690009EA19AE007E035E063E09AE0A4E0B8E09C
:1036A000C5E0C9E075E00096019628460296FCF751
:1036B0003CFE684604E001550119641C4E70E4B2FA
:1036C000295D4F2903D02A1952784B2AF3D1FFF7ED
:1036D000E9FB01285DD16846FCF708FEA0F10A016C
:1036E000242909D3642322228EA16048FEF7CCFE50
:1036F00064232C2294A168E09F4964231E22087051
:103700009EA162E00096019628460296FCF70DFE07
:10371000684604E001550119641C4E70E4B2295D4D
:103720004F2903D02A1952784B2AF3D1FFF7BAFB5D
:1037300001282ED16846FCF7D9FDA0F11E014229CF
:1037400009D364231F2295A14848FEF79DFE6423F8
:1037500029229AA139E0A44964231B220870A3A15D
:1037600033E00096019628460296FCF7DEFD684697
:1037700004E001550119641C4E70E4B2295D4F2923
:1037800003D02A1952784B2AF3D1FFF78BFB01287B
:1037900003D064230E229CA117E06846FCF7A6FD27
:1037A000A0F1640140F63D72914209D364231A22CC
:1037B00099A12E48FEF768FE642329229DA104E00A
:1037C000A649642316220880A5A12848FEF75CFEBE
:1037D0002AE0012902D0022903D025E06422A6496B
:1037E0000AE0FFF71FFC1FE0012902D002290DD0DB
:1037F0001AE0A149642264316846FCF7E5FD684699
:10380000FCF7B7FD82B264236946DEE7FFF7E8FB09
:103810000AE0012902D0022904D005E09649642279
:10382000C831E9E7FFF7B8FB2E701AB070BD012070
:10383000107064229149DFE7022010708F496422E2
:103840006431D9E7020000200A6661696C20746F58
:103850002073657420646874206672657175656E86
:1038600063792076616C756500000000100100200E
:103870000A646874206672657175656E6379207676
:10388000616C75652072616E6765732066726F6D1D
:1038900020313020746F2039300A000008000020E9
:1038A0000A646874206672657175656E6379206953
:1038B00073207365740A00000A6661696C20746F76
:1038C0002073657420676173206672657175656E1B
:1038D00063792076616C7565000000000A6761738A
:1038E000206672657175656E63792076616C7565A9
:1038F0002072616E6765732066726F6D20313020B3
:10390000746F2039300A00000C0000200A676173D0
:10391000206672657175656E6379206973207365C1
:10392000740A00000A6661696C20746F2073657404
:103930002074656D7065726174757265207468724B
:103940006573686F6C6400000A74656D7065726100
:1039500074757265207468726573686F6C64207228
:10396000616E6765732066726F6D20313020746FF1
:103970002034350A00000000240000200A74656D20
:103980007065726174757265207468726573686FB2
:103990006C64206973207365740A00000A666169AB
:1039A0006C20746F207365742068756D6964697428
:1039B00079207468726573686F6C64000A68756D4D
:1039C0006964697479207468726573686F6C6420C7
:1039D00072616E6765732066726F6D20333020747C
:1039E0006F2039350A000000250000200A68756D37
:1039F0006964697479207468726573686F6C642097
:103A00006973207365740A000A73796E7461782093
:103A10006572726F720A00000A6661696C20746FC9
:103A20002073657420676173207468726573686FB2
:103A30006C6400000A676173207468726573686F54
:103A40006C642072616E6765732066726F6D2031E1
:103A5000303020746F20343030300A0026000020CF
:103A60000A676173207468726573686F6C6420699B
:103A700073207365740A000088460008B447000884
:103A800070B51948164C174D007800F057FC2168A6
:103A900000F068FC01D8012200E000222021284625
:103AA000FDF789FC1148007800F048FCA16800F09F
:103AB00059FC01D8012200E0002240212846FDF7F0
:103AC0007AFC0B480B4900880988884201D30122FF
:103AD00000E000222846BDE870408021FDF76BBC65
:103AE000540100200008014024000020250000208F
:103AF000060000202600002070B504465648B6B0E7
:103B00000178012946D100260670142253491DA8C8
:103B1000FCF75AFC51491422143122A8FCF754FC3A
:103B20004E491C2228316846FCF74EFC4B491C22AA
:103B3000443107A8FCF748FC48491C2260310EA814
:103B4000FCF742FC454914227C3127A8FCF73CFCD9
:103B50004249142290312CA8FCF736FC3F4914222C
:103B6000A43131A8FCF730FC3C480DF1540CB830BE
:103B70002EC88CE82E000FC819AD85E80F001DA9CE
:103B80002046FCF7C0FB364D30B12E702146287818
:103B9000FFF7FEFC36B070BD22A92046FCF7B3FB50
:103BA00008B101200CE069462046FCF7ACFB08B1E7
:103BB000022005E007A92046FCF7A5FB10B1032071
:103BC0002870E3E70EA92046FCF79DFB08B104200E
:103BD000F6E727A92046FCF796FB28B1E0794F28A5
:103BE00002D1207A4B2835D02CA92046FCF78BFB3C
:103BF00028B1E0794F2802D1207A4B2828D031A96A
:103C00002046FCF780FB28B1E0794F2802D1207ACA
:103C10004B281BD015A92046FCF775FB28B1607A0C
:103C20004F2802D1A07A4B280ED019A92046FCF7C4
:103C30006AFB28B1607A4F2802D1A07A4B2801D0C4
:103C40000A20BDE70920BBE70820B9E70720B7E74E
:103C50000620B5E70520B3E7040000207C480008F3
:103C60002800002010B500290AD00878002807D0C5
:103C700005487844FCF754FD002801D0002010BD11
:103C80000248784410BD0000620D00005A0D00008B
:103C900021F00042A2F16052B2F5801F01F0004312
:103CA00028BFD2F17F6C0BD95FEA001C43EAC20245
:103CB00042EB507018BF704728BF20F001007047DA
:103CC000B2F5801FBCBF184670474FEA410C1CF587
:103CD000001F02D2084600F040BC70B500F075F934
:103CE00000000089FFF7F6BF4FF00040A0F580000C
:103CF000704700002DE9C04130B4DFF8A0C23CEAB3
:103D0000111418BF3CEA131400F0EC8081EA03059B
:103D10001CEA111444EAD57418BF1CEA131500F00C
:103D2000C780A4EB05044FF0004545EAC12145EAF0
:103D3000C32341EA505143EA525304F17F7499423C
:103D400004F500344FEAC0204FEAC22208BF904277
:103D500000F09C804FEA13650FF24016765D4FEA43
:103D6000134506FB05F7C7F1807706FB07F74FEA17
:103D7000D737A7FB03687642C8F58038A7FB06CE85
:103D800038BFA8F1010807FB08E64FF0000EA6FBBC
:103D9000028CE6FB03CEDCF1000CCEF1004E38BF06
:103DA000AEF1010EA6FB0C584FF000074FF00005D6
:103DB000E6FB0E87A1FB08C6A0FB07CE16EB0E069E
:103DC00045F10005E1FB076515F1E04E7EBFA4F566
:103DD00080345FEA46066D4116F1800745F1000523
:103DE0004FEA17274FEA066647EA0567A6F1DE465F
:103DF000B6F1805F4FEA15251FD9384624F0010C33
:103E000005EBC471BCF1FE6F01EB0C1102D8F0BCE4
:103E1000BDE8008124425CBF01F5801E9EEAC47F9C
:103E200002D4F0BCBDE80081244238D4F0BCA1F13A
:103E3000C041BDE8004100F016B94FEAD22242EA83
:103E400043524FEAD323A7FB02864FEAD02040EA31
:103E5000415007FB03661EEA0E0F4FEAD12105FB16
:103E6000026658BFA6EB0056B6EB00564FEA520E5C
:103E70004EEAC37E18EB0E0E56EB530EBDD518EB73
:103E800002085E417F1C55F10005B6E74FF480152E
:103E90004FF000074FF000064FF00008ADE7F0BC10
:103EA0004FF0000001F1C04101F00041BDE8008188
:103EB00011EA0C1F0CEA131500D00CE013EA0C1FDA
:103EC00000F025804FF00000F0BC81EA030101F012
:103ED0000041BDE80081F0BCBDE8004181EA03017A
:103EE00000F0C1B8F0BCBDE8004170B500F06DF85D
:103EF000097EFC3E00F007B881EA03014FF00000A4
:103F000001F00041704781EA030100F0ACB8F0BC59
:103F1000BDE800414FF0000021497047FFFDFBF96B
:103F2000F7F5F4F2F0EEEDEBE9E8E6E4E3E1E0DEEC
:103F3000DDDBDAD8D7D5D4D3D1D0CFCDCCCBCAC85E
:103F4000C7C6C5C4C2C1C0BFBEBDBCBBBAB9B8B785
:103F5000B6B5B4B3B2B1B0AFAEADACABAAA9A8A878
:103F6000A7A6A5A4A3A3A2A1A09F9F9E9D9C9C9B46
:103F70009A999998979796959594939392919190F1
:103F80008F8F8E8E8D8C8C8B8B8A89898888878782
:103F90008685858484838382828181800000FF07F7
:103FA0000000F87FB0FA80F310FA03F10AD0C3F1F1
:103FB0001D0303F580634FEA41504FEA035202EBC1
:103FC000D12170474FF0000070470EF1020E2EF025
:103FD000030E5EF8046B364205D4012A43EB030559
:103FE00015F5001F12D8012841EB010C1CF5001F2C
:103FF0000CD80ED14FEAD17C15F5001F0CEB4C0C00
:104000000CF1020C08BF4CEBD37C04E04FF0080C21
:1040100001E04FEAD37C0CEB4C0526FA05F606F0DE
:104020000706B6F1040C06D20EEB860CBDE8704014
:104030004CF0010C6047DFE80CF0090B02024FF076
:1040400000414FF00000A1F5002170BD1946104657
:10405000012851EB010418BFD4F5001484BF0020DF
:1040600001F0004170BD0808A0F500114FEA3101D0
:104070007047000090EA010F48BF81F0004100F155
:104080008282421A3CBF801A89184FEAD0524FF000
:104090007F4C1CEA410FA2EBD15318BF9CEA026F80
:1040A00000F03B804FF0004C4CEA00204CEA01212C
:1040B00021FA03FC10EB0C0C1ED202F1FF325FEA76
:1040C0001C2040EBC25038BF70471CF07F0F4FEAF6
:1040D000400C18BFBCF17F4F38BF7047C3F12003BD
:1040E000994008BF20F00100BCF17F4F38BF7047F6
:1040F000A0F1C04000F031BA4FEA3C00000A40EBAA
:10410000C25028BF1CF0FF0F4FEA400CE6D018BF8A
:10411000BCF17F4F38BF7047EAE79CEA026F05D0D9
:1041200010EA5C0F08BF00F00040704710B500F0C7
:10413000CEF900BF64FBBE3E401058BFC0F1404006
:10414000491058BFC1F140418142EFF300807047F0
:104150004FF47F0C1CEAD0121EBF1CEAD11392EA66
:104160000C0F93EA0C0F00F0858090EA010F48BF16
:1041700042F4807240F4000C41F400002CF07F41C6
:1041800020F07F4000B58142A2EB03020FF2081C31
:10419000ACEB504EC0F100009EF800E04FEA4E0E2E
:1041A00000FB0EFC38BF49004FEA2C1C02F5FA0256
:1041B0000CFB0EF34FEACE1E4FEA112C4FEAC12141
:1041C0000EEB635E42EB22420EFB0CFC4FEA1C53EB
:1041D00000FB03114FEA112C4FEA01310EFB0CFCDE
:1041E0004FEADC4C00FB0C11C14228BF09184CEB14
:1041F00003335DF804EB10EB410143EBC250B2F521
:104200007C0F38BF704729D512F0F00F1CBF00F1AA
:10421000C04000F00040704700818283848586871B
:1042200088898B8C8D8E8F919293959697999A9C75
:104230009D9FA0A2A3A5A7A8AAACAEB0B2B3B5B7E4
:10424000B9BCBEC0C2C5C7C9CCCED1D4D7D9DCDFBA
:10425000E2E6E9ECF0F3F7FAFE0000004FEA400C6A
:104260000CF1807CBCF17E4F28BF7047B0F1C0409C
:1042700000F073B990EA010F0CEAD11348BF42F481
:104280008072624538BF634507D213F47F0F16D0A2
:1042900080EA010000F00040704710B500F017F907
:1042A000097EFC3E00F005B880EA010000F0004005
:1042B000704780EA010000F0004000F04EB912F4AF
:1042C0007F0F04BF0248704780EA010000F045B943
:1042D0000000C07F41000B0ED3F19E0208D950F4BC
:1042E00000034FEA032323FA02F048BF404270471D
:1042F00010B500F0ECF800BF499224800020704710
:104300006FF0004282EA20007047000010F0004188
:1043100048BF4042B0FA80F310FA03F2C3F19D03A4
:104320000BD051EAC35101EB1220530638BF70473E
:1043300000F1010008BF20F001007047B0FA80F3DF
:1043400010FA03F2C3F19D030AD0D90501EB122044
:10435000530638BF704700F1010008BF20F001008C
:104360007047000050EA010C00F113801CF5000FAB
:1043700058BFBCF5000F01D48842704707D710F52D
:10438000000F58BF11F5000F15D4884270478942BD
:1043900070471CF5000F04D5BCF5000FF7D581421E
:1043A00070474FF0807C1CEB400F38BF1CEB410F77
:1043B00001D28142704710B500F089F8922449007B
:1043C0004FF000504FF08051FFF7B6BE4FF47F0C16
:1043D0001CEAD0121EBF1CEAD11392EA0C0F93EA1A
:1043E0000C0F00F0478090EA010F48BF42F4807242
:1043F0004FF0004C4CEA00204CEA012102EB030292
:10440000A0FB0113A2F50002002918BF43F001032D
:104410005B0028BF4FEA330342EB22425FEA132CD2
:104420004CEBC2502EBFBCEB436FB2F57C0F704714
:104430004FEA036CBCF1004F08BF20F00100B2F559
:104440007C0F38BF70470BD582F0FF0212F5803F1A
:10445000C8BF704700F1C040D8BF00F000407047AF
:1044600000F5000C5FEA4C0C48BF7047B0F1C0404B
:1044700000F073B890EA010F0CEAD11348BF42F480
:104480008072624538BF634504D280EA010000F0C3
:104490000040704710B500F01AF800BF8900013ED7
:1044A00000F007B800F009B85FEA410C5FEA1C6C45
:1044B00008D080EA010000F050B85FEA400C5FEAE3
:1044C0001C6CF6D14FF00040A0F5800070470EF153
:1044D000020E2EF0030E5EF8044B244204D44FEA81
:1044E0004102B2F17F4F11D84FEA4003B3F17F4F41
:1044F0000CD80ED14FEAD07CB2F17F4F0CEB4C0CB4
:104500000CF1020C08BF4CEBD17C04E04FF0080C1E
:1045100001E04FEAD17C0CEB4C0324FA03F404F0E5
:104520000704B4F1040C06D20EEB840CBDE8104075
:104530004CF0010C6047DFE80CF0070802024FF076
:104540000040A0F5800010BD0846420018BFD2F11F
:10455000807288BF00F0004010BDFF2141EAD050BA
:10456000C005704780F0004090EA010F7FF589ADEB
:1045700081F0004100F007B890EA010F48BF81F0D8
:1045800000413FF57EAD421A04D882F00042A0EB14
:10459000020011444FEAD0524FF07F4C1CEA410F09
:1045A000A2EBD15318BF9CEA026F4AD04FF0004CE7
:1045B0004CEA00204CEA012121FA03FCB0EB0C0C80
:1045C0000FD412F0FE0F36D05FEA4C001DD500125A
:1045D00040EBC25038BF70471CF03F0F18BF704708
:1045E0000BE0A2F101025FEA1C2040EBC25038BF91
:1045F00070471CF07F0F18BF7047C3F1200399402C
:1046000014BF401E20F00100704780084FEA1223BB
:1046100008BF7047B0FA80FCA2EB0C02CCF1280C6A
:1046200060FA0CF093EA122F04BF00EBC2507047FF
:104630004FEAC3707047130A5FEADC1008BF704787
:10464000F6E79CEA026F04D010EA5C0F08BF002076
:10465000704710B5FFF73BFF40DFF63E81F00040AA
:10466000704700000000000000000102030406077C
:104670000809000000000102030400000000803F60
:1046800000000000000000000A63616E6E6F74207D
:104690006765742074656D706572617475726520EC
:1046A000696E6465782062656361757365206F6605
:1046B000206D6F646520310A0000000000000000DA
:1046C00000000000000000000000000000000000EA
:1046D00000000000000000000000000000000000DA
:1046E0000000000000000000000000000A63616E8E
:1046F0006E6F74206765742068756D69646974797C
:1047000020696E6465782062656361757365206FEA
:1047100066206D6F646520310A0000000000000013
:104720000000000000000000000000000000000089
:104730000000000000000000000000000000000079
:104740000000000000000000000000000000000069
:104750000A63616E6E6F74206765742067617320F1
:10476000696E6465782062656361757365206F6644
:10477000206D6F646520310A000000000000000019
:104780000000000000000000000000000000000029
:104790000000000000000000000000000000000019
:1047A0000000000000000000000000000000000009
:1047B000000000000A6D6F64653120697320736525
:1047C00074207375636365737366756C6C790A0026
:1047D00000000000000000000000000000000000D9
:1047E00000000000000000000000000000000000C9
:1047F00000000000000000000000000000000000B9
:1048000000000000000000000000000000000000A8
:1048100000000000000000000A6D6F64653220692E
:104820007320736574207375636365737366756C49
:104830006C790A0000000000000000000000000089
:104840000000000000000000000000000000000068
:104850000000000000000000000000000000000058
:104860000000000000000000000000000000000048
:1048700000000000000000000000000073657420CC
:10488000646874206672657175656E6379200000D6
:1048900073657420676173206672657175656E63F8
:1048A000792000007365742074656D2074687265EA
:1048B00073686F6C642000000000000000000000BE
:1048C0007365742068756D207468726573686F6CA9
:1048D00064200000000000000000000073657420E8
:1048E000676173207468726573686F6C6420000080
:1048F00000000000000000006765742074656D0012
:104900000000000000000000000000006765742047
:1049100068756D000000000000000000000000004D
:1049200067657420676173000000000000000000EC
:1049300000000000736574206D6F64653100000035
:1049400000000000736574206D6F64653200000024
:10495000000000000A74656D70657261747572659F
:104960002069733A200000000000000000000000F1
:10497000000000000A68756D6964697479206973C4
:104980003A200000000000000000000000000000CD
:10499000000000000A67617320636F6E63656E74C8
:1049A000726174696F6E2069733A20000000000024
:1049B00000000000E44A000800000020440000005D
:1049C00028010008284B000844000020340800009B
:1049D000440100081001000043000000F8FFFFFF41
:1049E0000040404040404040404041414141414002
:1049F00040404040404040404040404040404040B7
:104A00004005020202020202020202020202020245
:104A1000022020202020202020202002020202024A
:104A200002029090909090901010101010101010A2
:104A300010101010101010101010101002020202AE
:104A400002028888888888880808080808080808F2
:104A500008080808080808080808080802020202EE
:104A60004000000000000000000000000000000006
:104A70000000000000000000000000000000000036
:104A80000000000000000000000000000000000026
:104A90000000000000000000000000000000000016
:104AA0000000000000000000000000000000000006
:104AB00000000000000000000000000000000000F6
:104AC00000000000000000000000000000000000E6
:104AD00000000000000000000000000000000000D6
:104AE000000000000002010000000000102700008C
:104AF00010270000E8030000000000000000000094
:104B000000000000000000001950E8030000000051
:104B10000100000010000000000000000024F4006C
:084B200000000000000000008D
:04000005080000ED02
:00000001FF
